:020000040800F2
:10000000984D00209D010008F72B000843290008A7
:10001000F52B0008CD0B000865310008000000003A
:1000200000000000000000000000000005010008C2
:10003000CD0D00080000000049010008212D000836
:10004000B7010008B7010008B7010008B7010008B0
:10005000B7010008B7010008B7010008B7010008A0
:10006000B7010008B7010008B7010008C10D00087A
:10007000B7010008B7010008B7010008B701000880
:10008000B7010008B7010008B7010008B701000870
:10009000B7010008B7010008B7010008B701000860
:1000A000B7010008B7010008B7010008B701000850
:1000B000B52D0008B7010008B7010008B701000816
:1000C000B7010008B7010008B7010008B701000830
:1000D000B70100084D31000859310008B701000888
:1000E000B7010008B7010008B7010008DFF810D019
:1000F00000F098FC004800475D460008AFF3008020
:10010000984D0020224B19680868B0E8F00F80F382
:100110000988BFF36F8F4FF0000080F311884EF015
:100120000D0E70470000000006480068006880F36C
:10013000088862B661B6BFF34F8FBFF36F8F00DFE1
:1001400000BF00BF08ED00E0EFF30980BFF36F8F41
:100150000F4B1A6820E9F00F106008B54FF0BF0090
:1001600080F31188BFF34F8FBFF36F8F05F0D4FA80
:100170004FF0000080F31188BDE808401968086856
:10018000B0E8F00F80F30988BFF36F8F704700BFAE
:100190003C000020EFF305807047000006488047D0
:1001A00006480047FEE7FEE7FEE7FEE7FEE7FEE75C
:1001B000FEE7FEE7FEE7FEE7B12D0008ED000008D0
:1001C000202A04DB203A21FA02F00021704721FAAC
:1001D00002F3D040C2F12002914008431946704713
:1001E00040EA01039B0703D009E008C9121F08C0B9
:1001F000042AFAD203E011F8013B00F8013B521E39
:10020000F9D27047D2B201E000F8012B491EFBD2AF
:1002100070470022F6E710B513460A460446194611
:10022000FFF7F0FF204610BD30B505462A460B46C5
:1002300012F8010B13F8014B08B1A042F8D01CB121
:10024000002802D06D1CF1E7284630BD421C10F892
:10025000011B0029FBD1801A7047F0B480EA01022B
:10026000D40F4200B2EB410F02D2024608461146BB
:100270004A0042D0C30DDDB2C1F3C752AD1A202DE2
:1002800035DAC1F3160141F4000204B15242C5F15E
:10029000200602FA06F12A411044B3EBD05F23D0C6
:1002A000C4B1012DA0EBC35009DCF0BC4FF00042FB
:1002B00002EAC352DBB200F5000000F072BA40005F
:1002C00000F1807000EBC350A0F1807040EAD17063
:1002D000490009E0490841EAC071A0EBC35000F5AC
:1002E0000000400800EBC350F0BC00F051BA61427E
:1002F000012202EB4101001BF6E7F0BC704781F0E0
:100300000041AAE780F00040A7E780EA010210B5AB
:1003100002F00043400022D04A001FD0010E01EB42
:100320001261C0F35600C2F3560240F4000042F4DA
:100330000002A0FB022000047F39140400D0401CFE
:1003400050EA124001D44000491EC2B20C0604EB30
:10035000D010401C4008802A02D003E0002010BDCD
:1003600020F00100002900DA0020184310BD30B44D
:1003700080EA010202F0004530F0004221F0004026
:1003800013D090B1C30DD40DC2F31601C0F3160003
:10039000E41A41F4000140F400027D34914201D39B
:1003A000641C00E04900002C02DA30BC00207047D9
:1003B0004FF400000023914201D3891A03434008FF
:1003C0004FEA4101F7D151B1914202D14FF00041C2
:1003D00005E002D24FF0010101E06FF0010103EBF3
:1003E000C450284430BC00F0D3B92DE9FE4F8046FC
:1003F00081EA0300C00F0C46009021F0004123F079
:100400000045B8EB0200A94105D24046214690467E
:100410001C460B46024623F00040104347D0270DF0
:10042000C7F30A00C3F30A510290401A0190402812
:100430006BDAC3F3130040F4801B0098924620B19E
:100440000023D2EB030A63EB0B0B01985946C0F172
:100450004002504600F07BF906460D46504659468C
:10046000019A00F083F910EB08006141002487EA4B
:10047000115284EAE7731A4340D0009A62B3019A9A
:10048000012A4FEA075215DC001B61EB02014FF015
:10049000004202EA0752CDE90042001C41F58011FA
:1004A00032462B4600F0E9F903B0BDE8F08F404634
:1004B0002146F9E7001B61EB0201001C41F58013A6
:1004C00000185B412018A2F5001747EB030140EA32
:1004D000D570B6196D4111E06D084FEA360645EA50
:1004E000C0754FEA0752001B61EB0201001C41F589
:1004F000801149084FEA30000019514132462B461D
:1005000003B0BDE8F04F00F0A9B900980122400007
:100510000023D0EB020263EBE073009821464FEA20
:10052000E074B8EB000061EB0401E9E783F00043FD
:100530005BE781F0004158E72DE9FE4F81EA0304B3
:1005400004F0004421F0004100944FF0000B23F030
:10055000004350EA01045ED052EA03045BD0C3F3C7
:100560000A54C1F30A552C44A4F2F3340194A0FBBD
:100570000254C1F3130141F48011C3F3130343F494
:10058000801301FB024400FB034E840A970A44EAED
:10059000815447EA8357A4FB076802958D0A05FB3F
:1005A00007854FEA932C04FB0C542705029D4FEA64
:1005B000065847EA1637B5EB08056EEB070C870EB1
:1005C000920E47EA811742EA8312A7FB0201B6EBBB
:1005D0000B0164EB00042B0D43EA0C335E1844EB73
:1005E0001C50DA465146E7FB0201C5F313044FEAFB
:1005F0000B3343EA14534FEA0432019C43EA0603E7
:10060000A4F10C040294009CCDE900B400F035F98B
:1006100003B0BDE8F08F00200146F9E7C10F80EA82
:10062000E0700844CA079623002100F0BAB8962368
:100630000022114600F0B5B800F0004220F0004062
:10064000C10DC0F3160040F400007F2901DA00203C
:100650007047962903DCC1F19601C84001E0963944
:100660008840002AF4D04042704700F0004230F049
:1006700000400AD0C10D01F56071C0F3160042EAD6
:100680000151C208400711437047002001467047DE
:1006900030B5041E71F1000404DB4FF00044404209
:1006A00064EB0101141E73F1000405DB1C464FF0DE
:1006B0000043524263EB0403994208BF904230BDAD
:1006C00030B50B46014600202022012409E021FA22
:1006D00002F59D4205D303FA02F5491B04FA02F51F
:1006E0002844151EA2F10102F1DC30BD2DE9F05FB6
:1006F0000546002092469B46884606468146402491
:100700001BE02846414647462246FFF759FD53461F
:100710005A46C01A914110D311461846224600F09D
:1007200016F82D1A67EB01084F46224601200021DA
:1007300000F00DF817EB00094E41201EA4F1010452
:10074000DFDC484631462A464346BDE8F09F202A72
:1007500004DB203A00FA02F1002070479140C2F118
:10076000200320FA03F3194390407047202A06DB48
:10077000CB17203A41FA02F043EAE07306E041FA6F
:1007800002F3D040C2F1200291400843194670475D
:100790000029A8BF7047401C490008BF20F0010095
:1007A000704710B4B0FA80FC00FA0CF050EA010473
:1007B00004BF10BC704749B1CCF1200421FA04F405
:1007C00011FA0CF118BF012121430843A3EB0C01DE
:1007D000CB1D4FEA00614FEA102042BF002010BC41
:1007E000704700EBC35010440029A4BF10BC7047F1
:1007F000401C490008BF20F0010010BC7047F0B455
:10080000002802DCF0BC00207047C0F3C751C0F3E1
:10081000160040F40000CA0701D14000491E3F22E3
:1008200002EB6105002211464FF4000626FA01F39F
:100830001344D418844201D8001B1A464000491CB6
:100840001729F3DD5100814202D24FF0FF3100E061
:10085000002102EBC550F0BCFFF79ABF10B5141E83
:1008600073F1000408DA401C41F1000192185B4169
:100870001A4301D120F0010010BD2DE9F04D924640
:100880009B4611B1B1FA81F202E0B0FA80F2203257
:100890009046FFF75CFF04460F4640EA0A0041EA33
:1008A0000B0153465A46084313D0114653EA010040
:1008B00019D0C8F140025046FFF782FC05460E46AB
:1008C000504659464246FFF742FF084305D00120F3
:1008D00004E020463946BDE8F08D0020054346EA95
:1008E000E0762C4337430A986305E40AA0EB08003E
:1008F0000022FD0A44EA47540A3002D5002001468E
:10090000E9E7010510196941DDE908450019694168
:10091000BDE8F04DA2E72DE9F04D81EA030404F0B3
:10092000004B21F0004514464FF0000A23F000412F
:1009300050EA050220D054EA01021DD0C5F30A573F
:100940000246C5F31303C1F31300C1F30A5640F482
:10095000801543F48013A7EB0608101BD64608F257
:10096000FD3873EB050002D308F1010801E092188D
:100970005B41B8F1000F03DA00200146BDE8F08DBD
:1009800000204FF48011064684460EE0171B73EBDF
:10099000050705D3121B63EB050306434CEA010C64
:1009A00049084FEA300092185B4150EA0107EDD147
:1009B00052EA030012D082EA040083EA05010843E8
:1009C00005D0101BAB4106D20122002306E0002215
:1009D0004FF0004302E06FF0010253101AEB0600E3
:1009E0004CEB085110EB0A0041EB0B01BDE8F04D58
:1009F000FFF734BFC1F30A52C1F3130140F2FF33D2
:100A000041F480119A4202DA00200146704740F218
:100A100033439A42A2F2334202DC5242FFF7D0BB88
:100A2000FFF795BE064C074D06E0E06840F0010375
:100A300094E8070098471034AC42F6D3FFF75AFB0E
:100A4000C05D0008E05D0008420005D0C0F3C75259
:100A50005242914201DC0020704700EBC1507047C8
:100A600070B5044600688168C943C90717D1816819
:100A700021F00101816000F0F7FE05460AE000BFA9
:100A800000F0F2FE401B022804D920688068C043B1
:100A9000C00706D020688068C043C007F0D000209F
:100AA00070BDA06A40F01000A062E06A40F0010052
:100AB000E062012070BD0000F8B5002604460096F3
:100AC00000688168C943C9072DD0816841F00101E0
:100AD0008160164816490068B0FBF1F000E0401E46
:100AE00000900028FBD100F0BFFE054616E000BFD5
:100AF00000F0BAFE401B022810D920688068C0436D
:100B0000C0070BD0A06A40F01000A062E06A40F07D
:100B10000100E06284F824600120F8BD206880684C
:100B2000C043C007E4D10020F8BD00001000002041
:100B300040420F0008B504F0BDFE00900221684657
:100B400004F07EFEFAE708B504F0B4FE009004213C
:100B5000684604F075FEFAE708B504F0ABFE0446FB
:100B60004FF4FA65CDF8000003F04EFA02F0B6FF3C
:100B700004F0A0FE001BA84207D3722205A10AA020
:100B800002F0F2FA04F096FE04463221684604F0C0
:100B900057FEE9E72E2E5C6170705C4170705F5407
:100BA00061736B2E630000005B25733A25645D2D35
:100BB0002D52544F533A2035306D73207461736B4E
:100BC00020616C6976650D0A00000000FEE70000F8
:100BD0007FB5002001900290044603900120164D3D
:100BE00000906946284600F045FD04E0641CE4B22C
:100BF000012000F023F80121284600F02BFE10B15F
:100C0000642CF3D30FE0642C0DD2002404E0641CA8
:100C1000E4B2012000F012F80121284600F01AFE8B
:100C200020B1642C05D3012004B070BD642CEED338
:100C3000F9E70020F8E7000000080140044900221D
:100C40000B685A6209684A6A8242FCD37047000006
:100C5000B401002010B586B00020029010488169D0
:100C600041F00401816180690E4C00F004000490A1
:100C7000012000900190032003906946204600F077
:100C8000F9FC01221146204600F0E9FD0A2000F09F
:100C9000DFFC00F075F8FFF79BFF06B010BD000009
:100CA00000100240000801407FB500200190029032
:100CB000044603900120164D00906946284600F036
:100CC000D9FC04E0641CE4B20120FFF7B7FF012166
:100CD000284600F0BFFD08B1642CF3D3002404E0E3
:100CE000641CE4B20120FFF7A9FF0121284600F0AF
:100CF000B1FD08B9642CF3D32820FFF79FFF012131
:100D0000284600F0A7FD002800D0012004B070BDE7
:100D10000008014070B5002004464006050EFFF7AC
:100D2000C3FF641C2843E4B2082CF6D370BD2DE940
:100D3000FC410D46064600F023F8FFF749FF10B1CD
:100D40000120BDE8FC8100246F46FFF7E3FF385522
:100D5000641CE4B2052CF8D39DF800109DF8010046
:100D60009DF803300A189DF8020003441A449DF8C8
:100D70000430D2B29A4201D1297030700020E0E7ED
:100D80001FB50020029001200090019003200B4C21
:100D900003906946204600F06DFC002201212046A8
:100DA00000F05DFD142000F053FC012211462046A6
:100DB00000F055FD1E20FFF741FF1FBD0008014058
:100DC000014800F06DBB0000D0000020704772B6F3
:100DD000FEE700001CB507490120CDE90001020231
:100DE000002305A1074804F0FDFCBDE81C4004F009
:100DF00063BC00002400002053746172745F54616E
:100E0000736B0000F92B0008F8B500250446009527
:100E100090F8240001280BD0012084F824002046FB
:100E2000FFF71EFE2046FFF747FE060002D050E007
:100E30000220F8BDA06A20F4885040F00200A062B1
:100E4000022000F0AFFD25490968B1FBF0F0400039
:100E500000E0401E00900028FBD12068816841F02E
:100E60000801816000F000FD074608E000F0FCFC8E
:100E7000C01B0A2803D920688068000715D42068A1
:100E800080680007F2D42068816841F00401816025
:100E900000F0EAFC074612E000F0E6FCC01B0A285E
:100EA0000DD920688068400709D5A06A20F00200AB
:100EB00040F01000A06284F824500120F8BD2068A2
:100EC00080684007E8D4A06A20F0020040F00100EA
:100ED000A06284F824503046F8BD000010000020C5
:100EE000F8B50024009490F824202546012A12D059
:100EF000012280F824204A681F23072A0DD20668A1
:100F0000776B521E02EB820293409F430B68934023
:100F10001F43776319E00220F8BD06680D2A0AD244
:100F2000376BD21F02EB820293409F430B689340C2
:100F30001F43376309E0F76A0D3A02EB82029340E0
:100F40009F430B6893401F43F7620A6807230668B4
:100F50000A2A0AD3F7680A3A02EB420293409F43F7
:100F60008B6893401F43F76008E0376902EB420249
:100F700093409F438B6893401F4337610A68102A50
:100F800001D0112A20D1124B02689A4217D19368DE
:100F90001B0219D4936843F4000393600968102975
:100FA00012D10C490C4A0968B1FBF2F101EB810145
:100FB000490000E0491E00910029FBD104E0816A4C
:100FC00041F020018162012480F824502046F8BDC0
:100FD000002401401000002040420F000068C06C57
:100FE000704700002DE9F0414FF0000704003D4636
:100FF0007ED0A06A002628B9E66284F824602046E4
:1010000000F07EF82046FFF72BFDA16AC90600D448
:1010100020B1A06A40F01000A06269E0A16A21F44A
:10102000885141F00201A1626268E169237B0A43B1
:1010300047EA43010A43A1684FF48077B94209D0D7
:10104000012907D05FF0000194F814C0BCF1010F32
:1010500002D00AE03946F7E7F3B1A36A43F0200370
:10106000A362E36A43F00103E3622368D3F804C098
:101070002CF4694C4CEA010CC3F804C021688B685D
:10108000DFF870C003EA0C0313438B60A168B94218
:101090000BD0012909D00CE0DFF85CC0A3690CEB90
:1010A00043330B4343F40061DFE7218A0D05A5F5C7
:1010B00080152168CB6A23F470032B43CB6221682F
:1010C00089680E4B1940914208D1E662A16A21F06D
:1010D000020141F00101A162BDE8F081A06A20F0A7
:1010E000020040F01000A062E06A40F00100E062FF
:1010F0000120F1E7FDF7E1FF00E0FFFFFE0E1FFF1B
:1011000070B586B0002605460096019602960396B5
:1011100000681A4988422FD11949886940F4007043
:101120008861886900F400700490886940F00400C8
:1011300088618869694600F00400049002200090EC
:10114000032001900F4800F095FA104C0E48C4E9B6
:1011500000068020C4E902604000206180006061D8
:101160002020A0610002E061204600F043FA08B1AF
:10117000FFF72DFE2C62656206B070BD00240140B1
:10118000001002400008014008000240D00000208A
:101190002DE9F84300270D460446009700F064FB54
:1011A000804620688168C90508D5A06A40F0200003
:1011B000A06284F824700120BDE8F8834168C90565
:1011C00003D4C06A10F4700F2AD0022000F0EAFBAA
:1011D0003B490968B1FBF0F62068036939490B42C5
:1011E0004FEA61014FEAA1121FD1C3684FEA611CA7
:1011F00013EA0C0F19D103690B4225D1C0681042C4
:1012000022D1142023E0681C0AD02DB100F02CFB61
:10121000A0EB0800A84203D920680068800725D504
:10122000206800688007EED52DE003690B4202D1EB
:10123000C168114206D0026923490A4206D1C0683A
:10124000084203D1542002E0292000E0FC2046435C
:10125000009816E0681C11D02DB100F005FBA0EB42
:101260000800A8420AD90098B04207D2A06A40F00C
:101270000400A06284F8247003209DE70098401CBD
:101280000090B042E6D321686FF012000860A06AB7
:1012900040F40070A06220688068C0F342400728D4
:1012A0000CD1207B50B9A06A20F48070A062A06AA3
:1012B000C00403D4A06A40F00100A06200207BE7D4
:1012C00010000020244992244992240070B504465D
:1012D00090F8240001280DD0012084F82400204635
:1012E000FFF7EAFB02004FF0000005D084F824006D
:1012F000104670BD022070BDA16A40F201239943DF
:1013000041F48071A1621F4D23681F49AB4218D17F
:101310000E6816F4702F14D0A66A46F48016A662E2
:101320000E68760505D5A66A26F4005646F4805662
:10133000A662A66AF6040AD5E66A26F00606E66202
:1013400006E0A66A26F48016A6625E68E9E7E06217
:1013500084F824006FF00200186020688368C3F3EB
:101360004243072B05D1A84208D1096811F4702F18
:1013700004D0816841F480118160B9E7816841F44B
:10138000A001F9E7002801400424014010B50446FB
:1013900090F82400012807D0012084F8240020467A
:1013A000FFF75EFB10B107E0022010BDA16A21F437
:1013B000885141F00101A162002184F8241010BD80
:1013C00010B590F821100022022905D00421816374
:1013D00080F82020012010BD01680B6823F00E0367
:1013E0000B6001680B6823F001030B6090F840303C
:1013F000C46B012101FA03F3636080F8211080F8C7
:101400002020104610BD000010B590F821100024D7
:10141000022903D00421816301243DE001680A68A8
:1014200022F00E020A6001680A6822F001020A60D6
:101430001A4A0168914201D1012121E0174A143270
:10144000914201D110211BE0144A2832914201D16E
:10145000891515E0114A3C32914201D189140FE0FF
:101460000E4A5032914202D14FF4803108E00B4ACB
:101470006432914202D14FF4801101E04FF080714B
:10148000064A083A5160012180F82110002180F8B5
:101490002010416B01B18847204610BD0800024072
:1014A0002DE9F05FC16B0C6801680B68D0F840C093
:1014B000042202FA0CF2494DDFF824A1494E4A4FAA
:1014C000DFF828B1DFF828E122422CD05A072AD5CC
:1014D0000A68920603D40A6822F004020A600168CE
:1014E000A94201D1042219E0514501D1402215E061
:1014F000B14202D14FF4806210E0B94202D14FF400
:1015000080420BE0594502D14FF4802206E071453C
:1015100002D14FF4800201E04FF080622F49083978
:101520004A60C16A3BE04FF0020808FA0CF818EA7A
:10153000040F4FF000094FF0010235D05FEA8378C5
:1015400032D50B689B0605D40B6823F00A030B60A9
:1015500080F821200168A94201D1022219E05145F9
:1015600001D1202215E0B14202D14FF4007210E007
:10157000B94202D14FF400520BE0594502D14FF469
:10158000003206E0714502D14FF4001201E04FF045
:101590000072124908394A6080F82090816A002957
:1015A0001AD0BDE8F05F0847082505FA0CF525427A
:1015B00012D01B0710D50B6823F00E030B6090F8B8
:1015C0004010C36B02FA01F15960826380F8212058
:1015D00080F82090016BE2E7BDE8F09F0800024030
:1015E0001C0002403000024044000240580002400B
:1015F0006C00024030B528B308C8134914221944BE
:10160000B1FBF2F18900C163104981630221417786
:101610001A6843F6F0718A43D0E900142143D0E9F7
:1016200002452C43214304692143446921438469D1
:101630002143114319600021416301224277017760
:10164000084630BD012030BDF8FFFDBF000002405C
:1016500070B5044600F008F90546601C02D0044845
:101660000078044400F000F9401BA042FAD370BD9A
:10167000040000202DE9F84FDFF8B8910024A9F10B
:10168000040B23460F2709F1040AABF1040EC9E04D
:101690000125A5402A40AA427DD1674ED1F804C059
:1016A000ACEB0608B44532D014DCBCF1030F3AD0E1
:1016B00009DCBCF1000F2AD0BCF1010F1CD0BCF139
:1016C000020F31D11DE0BCF1110F17D0BCF1120F88
:1016D0002AD119E0B8F5881F19D006DCB8F5803F8B
:1016E00015D0B8F5801F1FD111E0B8F5001F0ED03E
:1016F000B8F5041F18D10AE0CB6815E0CB681B1DB4
:1017000012E0CB6808330FE0CB680C330CE08B6839
:101710002BB1012B4FF0080303D0456104E00423F3
:1017200002E0056100E00023FF2A01D8064601E03F
:1017300000F104064FEA840501D9A5F12005D6F889
:10174000008007FA05FC28EA0C0803FA05F548EAC8
:101750000508C6F800804D68ED0062D5374DAE69CA
:1017600046F00106AE61AD6924F0030605F00105FF
:101770000095334D06EB050CDCF80850A607360F34
:1017800007FA06F825EA0805DFF8B880404503D1D6
:101790004FF0000817E044E0DFF8AC80404502D18C
:1017A0004FF001080FE0DFF8A480404502D14FF070
:1017B000020808E0DFF89880404502D14FF00308A6
:1017C00001E04FF0040808FA06F848EA0508CCF8EA
:1017D00008804D68D9F80060ED024D4601D51643EA
:1017E00000E096432E604D68DAF80060AD02554681
:1017F00001D5164300E096432E604D68DBF800608B
:10180000AD035D4601D5164300E096432E604D685A
:10181000DEF80060ED03754601D5164300E09643FF
:101820002E60641C0D682A46E5407FF431AFBDE8A8
:10183000F88F000008040140000011100010024061
:101840000000014000080140000C01400010014070
:10185000001401408068084000D0012070470AB1A0
:10186000016170470904FBE7014880687047000088
:1018700004000020024881680278114481607047AA
:1018800004000020074810B5016841F01001016014
:10189000032000F075F80F2000F006F800F024F89F
:1018A000002010BD0020024070B50D4D04464FF4DD
:1018B0007A712878B1FBF0F00A490968B1FBF0F0C1
:1018C00000F02CFC48B9102C07D200222146501EF3
:1018D00000F036F800206C6070BD012070BD000083
:1018E00004000020100000200C4808B5816941F078
:1018F00001018161816901F001010091C16941F03B
:101900008051C161C06900F0805000900448416876
:1019100021F0E06141F00071416008BD001002401B
:1019200000000140002809DB00F01F020121914066
:101930004009800000F1E020C0F80011704700006D
:10194000F0B40E4B1B680C46C3F30223C3F107052A
:10195000042D00D90425191D072901D2002300E018
:10196000DB1E012606FA05F1491E214099409E40E2
:10197000761E16403143F0BC01F033BC0CED00E0A4
:10198000064900F0070208684FF6FF03184040EAD6
:101990000220034A10430860704700000CED00E08D
:1019A0000000FA0510B501460020234C012922D081
:1019B000022939D010291DD161682268D20119D5B8
:1019C0001E48C1F38342C903805C0AD561681B4A83
:1019D000C1F34041921E515C194AB2FBF1F14843F8
:1019E00001E0184948436168490203D440000321DB
:1019F000B0FBF1F010BD226AC2F30121012903D12D
:101A0000920701D5C80310BD022905D1626A920769
:101A100002D549F6404010BD0329FCD12168890355
:101A2000F9D54FF2244010BD00F02AF96168C1F3E6
:101A30008131491C4900DBE700100240145B0008BB
:101A400000127A0000093D002DE9F84305460078B0
:101A5000354CC00754D0E0690026C00008D4E069C6
:101A600040F08050E061E069012600F08050009075
:101A70002E480168C90512D40168804641F480717E
:101A80000160FFF7F1FE074605E000BFFFF7ECFE3F
:101A9000C01B642823D8D8F80000C005F6D5206AFA
:101AA00010F4407021D0A98801F4407181421CD00B
:101AB000206A1F49012220F440700A6000220A6057
:101AC0002062C00711D0FFF7CFFE074641F28838E9
:101AD00008E000BFFFF7C8FEC11B414502D9032043
:101AE000BDE8F883206A8007F4D5206A696820F48D
:101AF0004070084320621EB1E06920F08050E06130
:101B00002878800705D56068A96820F4404008431C
:101B100060602878C00605D56068E96820F4800018
:101B2000084360600020DBE70010024000700040C6
:101B3000400442422DE9F0470F46050061D0434E74
:101B4000306800F00700B84209D2306820F0070082
:101B500038433060306800F00700B84251D128683F
:101B60003B4C810712D5400703D5606840F4E06024
:101B700060602878000703D5606840F460506060BA
:101B80006068A96820F0F000084360602878C0070A
:101B900028D06868012810D02168022810D0890751
:101BA00000292EDA616821F0030101436160FFF72B
:101BB0005BFE804641F288390DE021688903EFE73A
:101BC0008901EDE7FFF750FEA0EB0801494502D976
:101BD0000320BDE8F0876068696800F00C00B0EB96
:101BE000810FEFD1306800F00700B8420BD93068A0
:101BF00020F0070038433060306800F00700B8423A
:101C000001D00120E5E72878400705D56068E9683C
:101C100020F4E060084360602878000706D560681B
:101C2000296920F4605040EAC100606000F038F893
:101C30006168084AC1F30311515CC8400649086055
:101C400006480068FFF730FE0020C2E7002002408F
:101C500000100240245B0008100000200800002053
:101C60000448054900684968044AC1F30221515CEF
:101C7000C84070471000002000100240345B00088C
:101C80000448054900684968044AC1F3C221515C0F
:101C9000C84070471000002000100240345B00086C
:101CA0000E4A51680E4801F00C03042B11D0082B8A
:101CB0000FD10C48C1F38343C903C05C0AD55168F6
:101CC000084AC1F34041921E515C054A5043B0FBA3
:101CD000F1F070470449484370470000001002408B
:101CE00000127A00025B000800093D002DE9F84F60
:101CF000040070D02078C04DC00749D06868C0F398
:101D00008100012807D06868C0F38100022809D14A
:101D10006868C00306D52868800339D56068002844
:101D2000E7D035E06068B0F5803F0BD010B1B0F57A
:101D3000A02F11D0286820F480302860286820F473
:101D4000802002E0286840F480302860606890B10C
:101D5000FFF78AFD06460AE0286840F480202860E4
:101D6000F0E700BFFFF780FD801B642873D8286868
:101D70008003F7D50CE0FFF777FD064605E000BFCE
:101D8000FFF772FD801B6428F0D828688003F7D421
:101D900020789A4E80074FF001094FF0000839D59E
:101DA000686810F00C0F07D06868C0F38100022843
:101DB00009D16868C00306D42868800714D5206953
:101DC000012808D110E02069B0B1C6F80090FFF7F3
:101DD0004BFD074605E00AE1FFF746FDC01B022860
:101DE000C4D828688007F7D52868616920F0F80012
:101DF00040EAC10028600DE0C6F80080FFF734FD1E
:101E0000074604E0FFF730FDC01B022823D82868EE
:101E10008007F7D4207800072CD57948A169D9B17B
:101E2000C0F80090FFF720FD074604E0FFF71CFD17
:101E3000C01B02280FD8686A8007F7D571484FF495
:101E4000FA510068B0FBF1F0009000BF0098411E0D
:101E50000091FAD20EE080E0C0F80080FFF704FDA8
:101E6000074604E0FFF700FDC01B022875D8686A2A
:101E70008007F7D42078400760D5E8690027C000C4
:101E800008D4E86940F08050E861E869012700F073
:101E9000805000905C480168C90513D401688346EE
:101EA00041F480710160FFF7DFFC824606E000BF6D
:101EB000FFF7DAFCA0EB0A0064284ED8DBF800003C
:101EC000C005F5D5E06801280AD008B1052813D06F
:101ED000286A20F001002862286A20F0040002E04D
:101EE000286A40F001002862E06841F2883B98B11E
:101EF000FFF7BAFC82460BE0286A40F00400286233
:101F0000EEE700BFFFF7B0FCA0EB0A0159455AD835
:101F1000286A8007F6D50CE0FFF7A6FC824605E0AC
:101F2000FFF7A2FCA0EB0A0159454CD8286A8007AC
:101F3000F6D41FB1E86920F08050E861E06988B309
:101F40006968C1F38101022944D00228C6F8608083
:101F500004D0FFF789FC044638E034E0FFF784FC46
:101F6000074604E0FFF780FCC01B02282BD8286836
:101F70008001F7D4206AB0F5803F05D16868A16878
:101F800020F4003008436860D4E908010843696818
:101F900021F4741108436860C6F86090FFF764FC90
:101FA000044606E025E000BFFFF75EFC001B0228A8
:101FB00009D828688001F7D51BE000BFFFF754FC63
:101FC000001B022802D90320BDE8F88F2868800191
:101FD000F4D40EE00128F7D06868226A00F480315A
:101FE000914204D1616A00F47010884201D001204E
:101FF000EAE70020E8E7000000100240000042424B
:1020000080044242100000200070004070B50400BF
:1020100009D0606A002540B125616561A56294F828
:10202000510040B10CE0012070BD6068B0F5827FC6
:10203000F4D0E561F2E784F85050204600F040F813
:10204000022084F851002068016821F040010160FD
:10205000A088218900F4827001F404410843A18919
:1020600001F400610843217C01F002010843217D55
:1020700001F001010843218B01F400710843217F25
:1020800001F03801084394F8201001F08001084362
:10209000218D01F40051084321680860A0690421E2
:1020A00001EA1040216848602068C16921F400619C
:1020B000C1616565012084F85100002070BD0000F9
:1020C00000B585B000210091019102910391006853
:1020D0000F4988421AD10F48816941F480518161CA
:1020E000816901F480510491816941F004018161A9
:1020F0008069694600F004000490A020009002204E
:102100000190032003900448FFF7B4FA05B000BD26
:1021100000300140001002400008014010B5401E90
:10212000B0F1807F01D3012010BD4FF0E024606149
:102130000F21601701F055F80020A06107202061F1
:10214000002010BD7047704770B590F83C20012A00
:1021500026D0012480F83C40022280F83D2003680C
:102160005A689D6822F070060A6832435A600D4B27
:1021700002689A4208D0B2F1804F05D00A4B9A42C9
:1021800002D00A4B9A4204D1496825F080031943D2
:10219000916080F83D40002180F83C10084670BDF9
:1021A000022070BD002C01400004004000080040E7
:1021B00010B5040003D094F83D0010B107E00120F1
:1021C00010BD002084F83C00204600F01FF80220DB
:1021D00084F83D00211D206800F0F2FD012084F804
:1021E000460084F83E0084F83F0084F8400084F8FC
:1021F000410084F8420084F8430084F8440084F8E5
:10220000450084F83D00002010BD000008B50168BD
:102210001048B1F1804F0BD00F4A914207D1C169EC
:1022200041F00201C161C06900F00200009008BDE8
:10223000C16941F00101C161C069002200F00100E3
:10224000009011461C20FFF77BFBBDE808401C20D6
:10225000FFF768BB001002400004004090F83D10FA
:10226000012901D001207047022180F83D1000684B
:102270000B49884208D0B0F1804F05D00949884207
:1022800002D00949884204D1816801F0070106297A
:1022900003D0016841F00101016000207047000097
:1022A000002C0140000400400008004070B50446C6
:1022B00090F83C000025012817D0012684F83C60E6
:1022C000022084F83D002068826822F0770222F420
:1022D0007F4282600868502838D00DDC20284FD01B
:1022E00005DC90B3102811D14AE0022070BD3028DF
:1022F00046D040280AD13BE060282FD070280DD06E
:10230000B0F5805F03D0B0F5005F12D0012584F8EE
:102310003D60002084F83C00284670BDCB68D1E9C0
:102320000121206800F088FD2068816841F0770174
:1023300009E0CB68D1E90121206800F07DFD20682B
:10234000816841F480418160E1E719E0CA68496829
:10235000206800F083FD5021206806E0CA684968C3
:10236000206800F08CFD6021206800F06FFDCEE752
:10237000CA684968206800F071FD40212068F4E7D0
:10238000226801461046F0E770472DE9F041044607
:102390000068C66805694FF00007A90713D5B107A3
:1023A00011D5F91E0161012020772068806980071E
:1023B000204602D0FFF7E8FF04E000F07EF8204658
:1023C00000F07CF82777680716D5700714D52168C8
:1023D0006FF004000861022020772068806910F403
:1023E000407F204602D0FFF7CFFF04E000F065F801
:1023F000204600F063F82777280715D5300713D556
:1024000021686FF008000861042020772068C06907
:102410008007204602D0FFF7B7FF04E000F04DF838
:10242000204600F04BF82777E80616D5F00614D5BD
:1024300021686FF010000861082020772068C069CB
:1024400010F4407F204602D0FFF79EFF04E000F02A
:1024500034F8204600F032F82777E80708D0F00774
:1024600006D021686FF001000861204600F027F8CF
:10247000280608D5300606D521686FF0800008616F
:102480002046FFF75FFE680608D5700606D521686E
:102490006FF040000861204600F012F8A8060AD547
:1024A000B00608D521686FF0200008612046BDE81D
:1024B000F041FFF748BEBDE8F081704770477047B4
:1024C0007047704770470000F8B501680446086817
:1024D000CA684B6910F00F0F4FF0000559D003F098
:1024E000010602F49077374365D0C10705D0D105C6
:1024F00003D5616C41F001016164410705D5D9073D
:1025000003D0616C41F002016164810705D5D907F0
:1025100003D0616C41F004016164010707D502F04A
:102520002001314303D0616C41F008016164616CAA
:1025300000293AD0800604D5900602D5204600F046
:10254000DFFC20684069616CC0F38010090700D48B
:1025500060B3204600F0ADFC20684069400621D5FC
:102560002068143050E8001F21F0400140E80012BC
:10257000002AF5D1E06BA8B16D494163E06BFEF72D
:1025800043FF002811D0E06B416B01B0BDE8F04083
:10259000084783060FD593060DD52046BDE8F840C1
:1025A00000F0AEBC2046FFF78DFFF8BD2046FFF7D8
:1025B00089FF6564F8BD266B2023012E7CD1C606F9
:1025C0007AD5D60678D508684868009048694FF0F3
:1025D0000206400640D5E16B086840680004000C24
:1025E000E8D0A28D8242E5D9E085886920282DD0E7
:1025F00020680C3050E8001F21F4807140E8001280
:10260000002AF5D12068143050E8001F21F00101A4
:1026100040E80012002AF5D12068143050E8001F6D
:1026200021F0400140E80012002AF5D184F8423040
:10263000256320680C3050E8001F21F0100140E8AD
:102640000012002AF5D1E06BFEF7BAFE6663A08D9A
:10265000E18D401A81B22AE0A08DE18D401A81B24D
:10266000E08D0028A6D00029A4D022680C3252E8C0
:10267000000F20F4907042E80007002FF5D1206889
:10268000143050E8002F22F0010240E80027002F0C
:10269000F5D184F84230256320680C3050E8002FD3
:1026A00022F0100240E80023002BF5D1666320469B
:1026B000FFF707FFF8BDFFE705062BD5150629D55F
:1026C00094F841002128F5D1A068B0F5805F01D1D0
:1026D0002069B0B1206A411C2162216800784860FD
:1026E000E08C401E0004000CE084E3D12068C16847
:1026F00021F08001C1602068C16841F04001C160E3
:10270000D8E7206A0088C0F308004860206A801C6F
:102710002062E5E74006CDD55006CBD5CA682046F5
:1027200022F04002CA6084F8413000F009F9C1E7A4
:10273000A32E000870B5040004D094F841000025D1
:1027400010B106E0012070BD84F84050204600F032
:1027500023F8242084F841002068C16821F4005146
:10276000C160204600F02EFC2068016921F49041F0
:1027700001612068416921F02A0141612068C16836
:1027800041F40051C1606564202084F8410084F860
:1027900042006563002070BD70B586B000240094CF
:1027A0000194029403942E4E03682E4902200322C2
:1027B0002D4DB34226D18B6943F480438B618B69E5
:1027C00003F4804304938B6943F004038B618969AC
:1027D000039201F0040104910102CDE90010694661
:1027E0002846FEF747FF2815CDE90004694628462C
:1027F0000294FEF73FFF002205212520FFF7A0F8F5
:10280000252028E0194EB34227D1CB6943F4003389
:10281000CB61CB6903F4003304938B6943F0040369
:102820008B618969039201F0040104910421CDE9CF
:10283000001069462846FEF71DFF0820CDE9000478
:10284000694628460294FEF715FF0022052126203E
:10285000FFF776F82620FFF765F806B070BD000098
:1028600000380140001002400008014000440040D0
:1028700090F84230202B01D00220704721B11AB1CC
:102880000023036300F0FABB01207047006803498E
:10289000884201D101F0FCBD7047000000440040B7
:1028A0002DE9F843044690F84100984616460D4637
:1028B000202802D00220BDE8F88385B17EB1002037
:1028C0006064212084F84100FEF7CEFFA684814693
:1028D000E684A0682027B0F5805F02D003E00120E5
:1028E000E9E7206910B12E4600250EE000260CE035
:1028F0008021204600F0DDFBA8B9C6B116F8010B17
:1029000021684860E08C401EE084E08C4B464FF02C
:102910000002CDF800800028EAD14FF040012046A7
:1029200000F0C7FB40B184F841700320C3E735F8DD
:10293000020BC0F30800E3E784F841700020BAE717
:102940007047FEE73EB500211048009101910E4A04
:102950000291026001248160047301754FF46022CA
:102960000461C2614160FEF73DFB08B1FEF72FFA3A
:1029700000940194694605480294FEF7B1FA0028D4
:1029800001D0FEF724FA3EBD00240140A000002043
:10299000094808B5416941F00101416140690022DF
:1029A00000F00100009011460B20FEF7C9FFBDE8C2
:1029B00008400B20FEF7B6BF0010024070B586B08D
:1029C000002427480094019402940394816941F003
:1029D00010018161816901F010010491816941F068
:1029E00020018161816901F020010491816941F038
:1029F00004018161816901F004010491816941F060
:102A0000080181618069174E00F0080004900122DE
:102A100007213046FEF723FF0122C0213046FEF792
:102A20001EFF5020CDE9000469460F480294FEF7CE
:102A300021FE072000900125CDE9015403246946B9
:102A400030460394FEF716FEC02000901120039438
:102A5000CDE9010569463046FEF70CFE06B070BDB3
:102A600000100240000C014000080140114810B560
:102A70000F4901604FF4827141604FF40041816061
:102A80000021C1604FF400720161C0E90512082203
:102A9000C0E90721416281620A21C162FFF7B6FAEB
:102AA000002803D0BDE81040FEF791B910BD00002A
:102AB000003001401401002010B586B000241648F3
:102AC000009401940294039404944FF0804105947F
:102AD000016041F61F41C0E901140921C0E9031456
:102AE0008461FFF765FB08B1FEF771F94FF4805080
:102AF000009069460848FFF7D9FB08B1FEF767F96F
:102B0000049404A904480594FFF71EFB002801D093
:102B1000FEF75DF906B010BD6C01002010B586B05F
:102B200000241748009401940294039404941349D8
:102B3000059401604721C0E901144FF6FF71C0E917
:102B400003148461FFF734FB08B1FEF740F94FF43A
:102B50008050009069460A48FFF7A8FB08B1FEF7CD
:102B600036F9049404A906480594FFF7EDFA002805
:102B700001D0FEF72CF906B010BD000000040040A3
:102B8000B40100200C4810B50A4901604FF4E1314E
:102B90004160002181600C22C160C0E904128161A2
:102BA000C161FFF7C7FD002803D0BDE81040FEF764
:102BB0000EB910BD00380140FC0100200C4810B5D2
:102BC0000A4901604FF4E1314160002181600C222B
:102BD000C160C0E904128161C161FFF7ABFD00284B
:102BE00003D0BDE81040FEF7F2B810BD004400402D
:102BF00044020020FEE7FEE77CB52F221EA123A0A1
:102C000000F0B2FA02F0AAFC042029498501CDE9BE
:102C1000000100232A4627A12A4802F0E3FD2449A7
:102C20000320091DCDE9000100232A4626A12A48D8
:102C300002F0D8FD1E4802240830CDE900400023F0
:102C40002A4626A1294802F0CDFD194800230C3060
:102C5000CDE900404FF4407225A1284802F0C2FDA2
:102C600002F08AFC4F2204A125A000F07DFABDE805
:102C70007C40002002F0D0BC2E2E5C6170705C4164
:102C800070705F5461736B2E630000005B25733AB4
:102C900025645D2D2D52544F533A20537461727444
:102CA0005F5461736B20656E7465720D0A000000DD
:102CB000280000204170705F5461736B5F324D5388
:102CC00000000000350B00084170705F5461736BA9
:102CD0005F344D5300000000470B00084170705FE7
:102CE0005461736B5F35304D53000000590B000881
:102CF0004F6E654E45545F4154000000B9490008CD
:102D00005B25733A25645D2D2D52544F533A207440
:102D100061736B7320637265617465640D0A0000F2
:102D200010B5FEF7A7FD02F0B7FD012803D0BDE8FE
:102D3000104002F041BD10BD30B593B02821684667
:102D4000FDF767FA14210AA8FDF763FA00250120B0
:102D50000F9510951195010412958DE823000490AC
:102D60004FF4E010CDE90810022407946846FEF7FE
:102D7000BDFF08B172B6FEE70AA90F2081E8310055
:102D80004FF48060CDE90D0502210AA8FEF7D2FEBE
:102D900008B172B6FEE74FF4004011900F940FA8EF
:102DA000FEF752FE002801D072B6FEE713B030BD28
:102DB000704700000148FFF7E8BA00006C010020EE
:102DC000F0B50268194B1A4C1A4D4FF080479842E3
:102DD00005D0B84203D0A04201D0A84203D122F0CE
:102DE00070064A683243984205D0B84203D0A042E8
:102DF00001D0A84203D122F44074CA6822434C692E
:102E000022F08002224302608A68C2620A688262FB
:102E1000984201D109690163012141610169C90732
:102E200003D0016921F001010161F0BD002C0140D6
:102E3000000400400008004010B5846842EA032204
:102E400024F47F440A432243826010BD826822F04A
:102E500070020A4342F007018160704710B5036AAF
:102E6000046A24F001040462846924F0F00444EA52
:102E7000021423F00A020A438461026210BD10B5F5
:102E8000036A046A24F010040462846923F0A00336
:102E900024F4704444EA023243EA0111826101627F
:102EA00010BD10B5406A0021C185C184FFF70AFB3F
:102EB00010BD01680C3151E8002F22F4907241E8F6
:102EC0000023002BF5D10168143151E8002F22F0C6
:102ED000010241E80023002BF5D1016B012909D142
:102EE00001680C3151E8002F22F0100241E8002364
:102EF000002BF5D1202180F842100021016370479A
:102F000008B590F84210222901D0022008BD82683D
:102F10004FF480539A4201D1016921B1816A9A42EA
:102F20001BD04AB10AE00268816A5268C2F3080203
:102F30000A80816A891C08E0026972B102685268DD
:102F400002F07F020A70816A491C8162C18D491EAC
:102F50000904090CC18503D01BE002685268F1E73F
:102F60000168CA6822F02002CA600168CA6822F4B7
:102F70008072CA6001684A6922F001024A61202118
:102F800080F8421000214163026B012A03D0FFF751
:102F90007DFC002008BD016301680C3151E8002F61
:102FA00022F0100241E80023002BF5D101680A68E5
:102FB000D20602D50A6849680091818DFFF781FA2F
:102FC000E7E7000070B5044600680169E26821F493
:102FD0004051114301612169A068084361690843B8
:102FE0002168CA6841F20C639A430243CA602068B0
:102FF0004169A26921F44071114341611E49206871
:10300000884202D1FEF73CFE01E0FEF729FE00EB0C
:10301000C00101EB0012606864218000B2FBF0F394
:10302000B3FBF1F36FF018067343B2FBF0F5B2FB9C
:10303000F0F605EB8305322303EB0515B5FBF1F53F
:10304000B6FBF1F605F0F00505EB0615B2FBF0F660
:10305000B2FBF0F0B0FBF1F06FF01802504306EB5A
:10306000800003EB0010B0FBF1F0216800F00F00CE
:103070002844886070BD000000380140816282856C
:10308000C28500214164222180F84210016921B1EA
:103090000168CA6842F48072CA6001684A6942F0F5
:1030A00001024A610068C16841F02001C16000204E
:1030B00070472DE9F843984617460D460446089E8A
:1030C00024E0701C22D0FEF7CFFBA0EB0800B0423A
:1030D0001AD8CEB12068C168490717D5802D15D000
:1030E000402D13D00168C94309070FD4016800259A
:1030F000406800902046FFF7DCFE0820606484F8FA
:1031000040500120BDE8F8830320FBE720680068F9
:1031100035EA000004D00020B842D2D00020F1E708
:103120000120F9E710B504000CD0FDF78FF8002856
:1031300008D0214682B2BDE810404FF0FF3302486C
:10314000FFF7AEBB10BD0000FC0100200148FFF7F7
:10315000BBB90000FC0100200148FFF7B5B9000031
:1031600044020020FEE700000FB4054B10B503A990
:10317000044A029800F024F910BC5DF814FB00002A
:1031800045460008000000200FB47CB50C0009ADD6
:1031900001D0611E00E00021CDE90001064B6A4626
:1031A0002946089800F00CF9002C02D0009A002162
:1031B00011707CBC5DF814FBC73A0008410008029E
:1031C00018BF04200A0E18BF40F001004FF07F42E4
:1031D00032EA010108BF40F00200012808BF0520C3
:1031E00070470907090E002804DB00F1E02080F891
:1031F0000014704700F00F0000F1E02080F8141D6B
:103200007047FDF72AB86FF05E010807FDF71CBC98
:1032100002E008C8121F08C1002AFAD1704770479F
:10322000002001E001C1121F002AFBD170470000FD
:1032300001490860704700009C0000202DE9FF5FF5
:1032400082B00021DDE90430020DDDF840B0034317
:1032500018D044F61050A2F2FF32424315141198D0
:1032600001281FD0A5EB0B00401C5FEA000A4FF0BD
:1032700000064E4FDFF83891B046504615D5CAF1DA
:10328000000413E0119801244AA3012801D16FEA38
:103290000B010298119AC0E90031C0E9024206B060
:1032A000BDE8F09FCBF10000DFE704460021404A73
:1032B000491842EB0450CDE9001012E0E00707D0B6
:1032C00032463B4640464946FDF736F98046894638
:1032D00032463B4610461946FDF72EF906460F4684
:1032E0006410002CEAD1DDE90401DDE90023BAF124
:1032F000000F06DAFDF720F942464B46FDF71CF9B0
:1033000005E0FDF708FB42464B46FDF704FB04468B
:103310000E460022284BFDF7BBF903D84FF0FF30D3
:10332000014607E00022254B20463146FDF75DF8B7
:10333000FDF760FB102409E0002C0ADB0A220023C1
:10334000FDF7D4F9039B30321A55641E50EA01028E
:10335000F2D1641C039AC4F111031444119A012A96
:1033600003D0012208430DD10AE0084304D0002015
:103370004FF0110B119072E7A3EB0B056D1E0DE0E2
:103380005B4504DD4FF0000205F1010504E003DABE
:103390004FF00002A5F10105002AECD00298119926
:1033A000C0E90231C0E9004579E70000000014409F
:1033B0000000F03F300000000000F0430000E03F5C
:1033C0002DE9FF4F95B09A46884606460025EEE166
:1033D000252877D100242746F94A0121039400E0EB
:1033E000044316F8013F203B01FA03F01042F7D1E5
:1033F00030782A2811D06FF02F033078A0F13002F6
:10340000092A16D8039A44F0020402EB820203EB65
:1034100042021044761C0390EFE758F8042B039205
:10342000002A03DA504244F40054039044F00204AA
:10343000761C30782E2816D116F8010F44F00404BB
:103440002A280DD06FF02F023078A0F13003092B1D
:1034500009D807EB870302EB4303C718761CF3E791
:1034600058F8047B761C30786C280FD006DC4C288A
:1034700017D068280DD06A2814D104E0742810D021
:103480007A280FD10DE044F400140AE044F48014CB
:1034900001E044F440147278824202D104F58014B1
:1034A000761C761C307866280BD013DC582877D031
:1034B00009DC002875D04528F6D04628F4D04728E6
:1034C0001AD193E118E0632835D0642879D06528B3
:1034D00012D18BE1702873D008DC6728F1D06928FD
:1034E0006FD06E280DD06F2806D1ACE073282CD099
:1034F000752874D0782853D05246179990476D1C80
:1035000054E1C4F30250022809D003280DD0D8F8A2
:10351000001004280DD00D6008F1040846E1D8F829
:103520000010EA17C1E90052F6E7D8F800100D8044
:10353000F2E70D70F0E718F8041B8DF8001000207A
:103540008DF80100EB46012003E058F804BB4FF072
:10355000FF3061074FF0000102D40DE009F10101D5
:103560008946B9420FDA8145F8DB1BF809100029BA
:10357000F4D108E009F1010189468142FADB1BF828
:1035800009100029F6D103985346A0EB09072146FC
:103590003846179A00F080FA284400EB090507E046
:1035A00044E008E10DE01BF8010B524617999047E3
:1035B000B9F10109F7D2534621463846179AF2E08D
:1035C00039E00A21C4F302524FF0000B0091022AA5
:1035D00006D058F8040BC117032A09D00AE023E0EB
:1035E00008F1070020F00702F2E80201904605E02A
:1035F00000B2C117042A01D140B2C117002906DA6E
:103600000A460021404261EB02012D2202E0220520
:1036100004D52B228DF80420012203E0E20701D01B
:103620002022F7E7914657E00A2100E010214FF0F1
:10363000000B00910BE010214FF0000B44F004044C
:103640000827009103E008204FF0000B0090C4F31E
:103650000252022A05D058F8040B0021032A08D090
:1036600008E008F1070020F00702F2E802019046A6
:1036700003E080B2042A00D1C0B24FF00009220753
:103680002AD53278702A07D0DDF800C08CF0100CF3
:103690005CEA0B0C05D00EE040228DF804200122DC
:1036A00008E050EA010306D030238DF804308DF88D
:1036B000052002229146009B83F0080353EA0B0386
:1036C0000AD150EA010201D1620705D530228DF8F6
:1036D00004204FF001097F1E3278582A04D039A205
:1036E0000C920CAA02920BE03BA2F9E75B46009A0F
:1036F000FCF7FCFF0C9B9B5C029A521E029213701B
:1037000050EA0102F2D1029804A9081A00F1200B34
:10371000600702D524F4803400E001275F4502DD14
:10372000A7EB0B0000E0002000EB0B0100900398DA
:103730004944401A0390E00306D453462146179AA1
:10374000039800F0A9F90544002706E001A85246B5
:10375000C05D179990476D1C7F1C4F45F6DBE00359
:103760000CD553462146179A039800F095F9054465
:1037700004E030205246179990476D1C0099481E6E
:1037800000900029F5DC08E0029802995246007882
:10379000491C0291179990476D1CBBF10001ABF1D8
:1037A000010BF1DC5BE100F065F90544761C307833
:1037B00000287FF40DAE19B02846BDE8F08F000058
:1037C00009280100303132333435363738396162F7
:1037D00063646566000000003031323334353637BB
:1037E000383941424344454600000000600700D498
:1037F000062708F1070020F00700F0E802238046C2
:1038000003F0004C5FEA0C0001D097A009E020050E
:1038100001D596A005E0E00701D095A001E0AFF248
:103820004C001390307823F0004365280CD006DC60
:10383000452809D046281DD047287FD13BE066287F
:1038400018D067287AD136E00021112F01DB112032
:1038500000E0781CCDE9000104A90CA8FFF7EEFCFC
:10386000DDE90D010C9A4FF0000B07F101091092F0
:1038700000914EE04FF000400097CDE9011004A9FF
:103880000CA8FFF7DBFCDDE90D020C9B0F994FF054
:10389000000B91461093009211B9791C00EB0109BD
:1038A000B7EB090003D4C0F1FF3B07F10109A9EB15
:1038B0000700019042E0012F00DA01270021112FBB
:1038C00001DD112000E03846CDE9000104A90CA873
:1038D000FFF7B4FCDDE90D010C9A00914FF0000BED
:1038E000B946109221070FD4009A4A4503DA91464F
:1038F00001E0A9F10109B9F1010F05DD109AA9F163
:103900000101515C3029F4D0B84202DA10F1040F01
:1039100003DA0121CDE9011010E0002803DC834423
:10392000A9EB000102E0411C494500DD8946A0EBFE
:103930000B00401C01904FF000400290200705D47E
:103940000198484502DB4FF0FF30019000208DF8D0
:103950004B0002980DF14B07B0F1004F25D002202B
:103960000C902B200D90029800280CDA4042029017
:103970002D200D9007E00A210298FCF7A1FE3031BE
:10398000029007F8011D0C99481E0C900029F2DCEA
:1039900002980028EFD1791E0D980870307800F059
:1039A000200040F0450007F8020D11A8C01BC01D03
:1039B00002901398007800B1012000EB09010198F2
:1039C00001EBE071029801440398401A401E0390F5
:1039D000E00306D453462146179A039800F05CF89A
:1039E00005441398007818B15246179990476D1CFA
:1039F000E00323D553462146179A039800F04CF86C
:103A000005441BE0BBF1000F07DB0098584504DDBF
:103A10001098179910F80B0001E0179930205246C2
:103A2000904701980BF1010B401E05F10105019033
:103A300004D12E205246179990476D1CB9F1000110
:103A4000A9F10109DEDC05E017F8010B52461799D0
:103A500090476D1C0299481E02900029F4DC5346E1
:103A60002146179A03989EE62D0000002B000000C7
:103A7000200000002DE9F041044600251E461746AF
:103A8000880404D405E039462020B0476D1C641E2C
:103A9000F9D52846BDE8F0812DE9F041044600251E
:103AA0001E469046C80301D5302700E02027880431
:103AB00004D505E041463846B0476D1C641EF9D573
:103AC0002846BDE8F0814A68002A06D00A68531CDF
:103AD0000B6010704868401E48607047F8B5204C75
:103AE000E06830B101F0E6FEE168401AB0F5FA6F27
:103AF0000FD32078002701261A4D002811D1FDF799
:103B0000A9F838B14FF4BA7217A11EA0FFF72CFB29
:103B10002F60F8BD40F2711213A124A0FFF724FB1F
:103B2000267010490931481EFDF701F950B140F2E5
:103B300081120DA128A0FFF717FB2F6001F0BAFE3C
:103B4000E060F8BD687A00902B7A4FF4BE7206A14F
:103B50002DA0FFF709FB60780028EFD02E60EDE77D
:103B6000140000208C0200202E2E5C6170705C61BD
:103B700070705F64617461636F6C6C6563742E63F5
:103B8000000000005B25733A25645D2D2D444854E8
:103B9000313120696E6974206661696C6564212029
:103BA000436865636B205041300D0A005B25733A12
:103BB00025645D2D2D444854313120696E6974208F
:103BC000737563636573732028504130202B205434
:103BD000494D33290D0A00005B25733A25645D2D9C
:103BE0002D44485431312072656164206661696CEE
:103BF000656421205265747279206E657874207432
:103C0000696D650D0A0000005B25733A25645D2D22
:103C10002D44485431313A2054656D703D2564433C
:103C20002C2048756D693D2564252552480D0A00F4
:103C3000002803D024220249FCF7D2BA70470000C2
:103C40008C02002010B524213148FCF7E2FA3049FB
:103C5000002008602FA0FFF765FA34A0FFF762FA92
:103C60003848FEF7FBFA38A0FFF75CFA3BA0FFF7F5
:103C700059FA4048FDF7C8F83FA0FFF753FA44A0AF
:103C8000FFF750FA00F066FE474C01224021204623
:103C9000FDF7E5FD012280212046FDF7E0FD43A070
:103CA000FFF740FA3220FDF7D3FC46A0FFF73AFABF
:103CB00000216B2000F05EFE98B90721192000F06A
:103CC00059FE70B906211A2000F054FE48B9182197
:103CD0001B2000F04FFE20B901211C2000F04AFEFD
:103CE00060B100203E4C60703EA0FFF71BFA607888
:103CF00030B140F23B1241A147A005E00120F1E7BD
:103D000040F23D123DA151A0BDE81040FFF72CBA92
:103D10008C020020434F4C4C4543543A20696E6955
:103D20007420656E7465720D0A000000434F4C4CA0
:103D30004543543A2073746172742054494D330DD5
:103D40000A000000B4010020434F4C4C4543543A54
:103D50002054494D33206F6B0D0A0000434F4C4CEB
:103D60004543543A206164632063616C69620D0AC3
:103D700000000000A0000020434F4C4C4543543A43
:103D8000206164632063616C6962206F6B0D0A00BF
:103D9000434F4C4C4543543A206164632072656143
:103DA00064790D0A00000000000C0140434F4C4CA8
:103DB0004543543A206D7075206770696F206F6BB2
:103DC0000D0A0000434F4C4C4543543A206D70752A
:103DD00020696E697420626567696E0D0A000000D3
:103DE00014000020434F4C4C4543543A206D7075ED
:103DF00020696E697420656E640D0A002E2E5C6168
:103E000070705C6170705F64617461636F6C6C652D
:103E100063742E63000000005B25733A25645D2DFA
:103E20002D4D50553630353020696E6974207375CC
:103E3000636365737320285042363D53434C2C20F6
:103E40005042373D534441290D0A00005B25733A27
:103E500025645D2D2D4D50553630353020696E6905
:103E600074206661696C65642120436865636B201A
:103E70005042362F50423720776972696E670D0ABB
:103E8000000000002DE9F04FDFF854818BB098F866
:103E9000010000280AD00E2204A93B2000F011FDE9
:103EA000504C4FF0000920B1C4F800900BB0BDE8B1
:103EB000F08FBDF81000BDF81C1040BA07B2BDF875
:103EC000120049BA40BA06B2BDF814000FFA81FBDD
:103ED00040BA00B2FCF7A2FB82465146FCF715FA45
:103EE00005463846FCF79AFB07463946FCF70DFABB
:103EF0002946FCF7B2F901F0B1FA05463046FCF765
:103F00008DFB294600F002F9374D2946FCF7FDF9F3
:103F10000646514687F0004000F0F8F82946FCF7C5
:103F2000F4F90546D8F804004746E8B301F0C2FCAE
:103F30007968401AFCF77BFB2C49FCF718FA80469D
:103F40005846FCF76BFB2A49FCF711FADFF8A4A0EE
:103F5000814651463046FCF7D8F9DFF89CB0039013
:103F60005946A069FCF7D1F90399FCF776F9A061ED
:103F700051462846FCF7C9F982465946E069FCF7E4
:103F8000C4F95146FCF769F9E06141464846FCF73F
:103F9000BCF9216AFCF761F9184A1949206290427C
:103FA00008DDFCF7ACF90AE0FFE7C4F82090C4E9AB
:103FB000066505E0134A904202D9FCF74EF92062EB
:103FC00025F0004126F00040FCF747F9FCF734FBF0
:103FD00060600120206001F06DFC786066E7000001
:103FE000140000208C020020E12E654200007A447B
:103FF000333383410AD7233D8FC2753F00003443DA
:104000000000B443000034C32DE9F04F8BB000250D
:104010003048FDF75BF958B914212E48FDF7B8F880
:1040200018B92C48FCF7DAFF05462A48FDF7AEF927
:10403000294C2846E560FCF7FAFA2849FCF765F9AF
:104040002749FCF794F9274D206110212846FDF7F8
:1040500001FC012800D00020207540212846FDF7F2
:10406000F9FB012800D000206075FFF70BFF01F07D
:1040700021FCDFF874B0DBF80810401AB0F57A7F45
:1040800025D3206AFCF7F1FA81468A46E069FCF7FD
:10409000ECFA07468846A069FCF7E7FA05460E46A3
:1040A0002069FCF7E2FA0A4604A981E8E007617D8D
:1040B000237D03918DE80D0040F255120BA11248AB
:1040C000E368FFF751F801F0F5FBCBF808000BB0FF
:1040D000BDE8F08FA00000208C0200203333534055
:1040E00000F07F4500080140140000202E2E5C6186
:1040F00070705C6170705F64617461636F6C6C653B
:1041000063742E63000000008C5B00082DE9F0470B
:104110004FF0684202EB40030C460546B3F1654F91
:104120003CBF02EB4102B2F1654F80F0CD8000BF91
:10413000C0F3C752C1F3C753D21A1B2A06DD10F0D1
:10414000004F14BF87488848BDE8F08712F11A0F66
:104150002FDA11F0004F06D010F0004F0CBF83484B
:104160008348BDE8F08721462846FCF700F906465B
:10417000FFF724F8042808BFFFF745F82846FFF7A3
:104180001DF805462046FFF719F804463046FFF7AC
:1041900015F8042D18BF052D08D1042C18BF052CC7
:1041A00004D1002804BF0220FFF742F83046BDE8E2
:1041B000F0874200B2EB410F25D910F0004F19BF34
:1041C0006C4F6D4E6D4F6E4E224685F00044154685
:1041D0000A4680F0004110460A1A5200B2F1807F70
:1041E0003ED248406749DFF8A0A110F0004F18D038
:1041F0004FF03F483846FCF782F8074651463046B4
:10420000FCF77DF817E011F0004F04BF0026374699
:10421000E2D010F0004F19BF5C4F5D4E5D4F5E4E17
:10422000DAE74FF07C583846FCF717F80746514656
:104230003046FCF712F8064641462846FCF765F87A
:104240002146FCF70AF8824621464046FCF75DF815
:104250002946FCF757F85146FCF789F8044604E074
:1042600021462846FCF783F804460146FCF74DF842
:1042700080464A49FCF749F84949FBF7EEFF4146B9
:10428000FCF743F84749FBF7E8FF4146FCF73DF8E8
:104290004549FBF7E2FF4146FCF737F84349FBF796
:1042A000DCFF054641462046FCF72FF82946FCF77F
:1042B0002CF83146FBF7D1FF2146FBF7CEFF3946FC
:1042C000BDE8F047FBF7C9BF4FF07F42B2EB400FAC
:1042D00028BFB2EB410F03D2BDE8F047FEF791BF14
:1042E00040EA01035B0008BF44F0FF410AD0B2EB93
:1042F000400F08BFB2EB410F06D125F0804024F0FB
:10430000804105460C4613E7B2EB400F12BF5FEA4F
:10431000410345F0FF4004F000413FF409AFB2EB28
:10432000410F12BF5FEA400205F0004044F0FF4138
:104330003FF4FEAE4A0092EA40033FF5F9AE002A90
:10434000ACBF4FF09F464FF03E563146FBF7DDFFC6
:10435000054631462046FBF7D8FF0446284621464D
:10436000E6E60000DB0FC9BFDB0FC93FDB0F4940AA
:10437000DB0F49C00000C9BF22AAFDB90000C93F38
:1043800022AAFD390060ED3EC30ACE37000049C0C5
:1043900022AA7DBA0000494022AA7D3A2DAD65BD12
:1043A0008FB8D53D0FB511BE61C84C3EA8AAAABEB4
:1043B00010B572B64FF400610348FBF72AFF0349BA
:1043C0000020488062B610BDB002002038000020F6
:1043D00010B5FFF7EDFFBDE810400122014902488A
:1043E000FEF746BA380000204402002030B5B9B0CC
:1043F00005000C4612D0002C10D00846FBF726FF13
:10440000782800D97820CDE900042B4604A2DC21CD
:1044100002A8FEF7B9FE02A8FEF784FE39B030BD4F
:104420002573252E2A730D0A0000000010B5002800
:1044300006D001460348FBF7F7FE002800D0012014
:1044400010BD0000B00200202DE9F0410D4D0746DF
:104450006C8840F2FF700026844205D36E80411CB8
:1044600000240948FBF7D5FE07490F55641CA0B28C
:104470000E546880BDE8F041012202490348FEF76E
:10448000F7B9000038000020B002002044020020EC
:1044900001480078FFF7D8BF3800002070B51546F6
:1044A0000E460446FFF784FF204600F00BF810B1DB
:1044B0004FF0FF3070BD29463046BDE8704000F037
:1044C00027B8000070B504004FF0FF350FD001464B
:1044D00008A0FFF78BFF2046FBF7B8FE82B240F63C
:1044E000B83321460648FEF7DBF9002800D02846FD
:1044F00070BD00004553505F54583A200000000042
:1045000044020020014601A000F002B83E00000075
:10451000F8B50D460646FDF7A7F9044625E03046F6
:10452000FFF784FF28B11B491BA0FFF75FFF0020A6
:10453000F8BD1CA0FFF77AFF38B91DA0FFF776FF82
:1045400018B91EA0FFF772FF60B1124920A0FFF753
:104550004DFF104B522222A125A0FEF705FE4FF081
:10456000FF30F8BD142001F03FF8FDF77DF9001B86
:10457000A842D4D3074925A0FFF738FF054800908B
:1045800033465A2216A124A0FEF7EEFD6FF001007B
:10459000F8BD0000B00200204553505F52585F4FF5
:1045A0004B3A20000D0A4552524F520D0A000000AE
:1045B0000D0A4641494C0D0A000000002B4D515494
:1045C00054444953434F4E4E454354454400000024
:1045D0004553505F52585F4552523A200000000048
:1045E0002E2E5C6170705C6573705F61742E630069
:1045F0005B25733A25645D2D2D4553502D41542084
:104600006572726F723A2025730D0A004553505F30
:1046100052585F544F3A20005B25733A25645D2D54
:104620002D4553502D41542074696D656F7574206C
:104630006578706563743D25732C2072783D257311
:104640000D0A000013B54FF0FF33012269460248FE
:10465000FEF726F900981CBDFC010020FDF712F9B9
:10466000FEF76AFBFEF7AAF9FEF792F9FEF76AF980
:10467000FEF722FAFEF786FAFEF7A0FAFEF74EFAE8
:10468000FEF7F4F90EA0FEF74DFD00234FF4806213
:10469000194612484FF0FF30792211A115A0FEF7FC
:1046A00063FD7A220EA11A48FEF75EFDFFF7CAFAF3
:1046B0007C220BA117A0FEF757FDFCF78BFBFEE752
:1046C0000D0A424F4F545F5241573A2055534152C1
:1046D000543120616C6976650D0A000000000020ED
:1046E0002E2E2F436F72652F5372632F6D61696E8B
:1046F0002E6300005B25733A25645D2D2D424F4FDC
:10470000543A206D61696E20656E7465720D0A0001
:104710003C5B00085B25733A25645D2D2D424F4FAD
:10472000543A206170705F636F6C6C6563745F698D
:104730006E697420646F6E650D0A000004490A6892
:10474000516A536A5B1A9BB28342FAD370470000E6
:10475000B40100202DE9F0410646002400F0EAF8FB
:10476000184F00256006040E002000F02DF80120EF
:1047700000F02AF880213846FDF76CF8012801D1B5
:1047800044F001046D1CEDB2082DEBD3002000F0C5
:104790001BF836B100F0DEF8002000F015F800201C
:1047A00005E000F0D7F8002000F00EF8012000F03E
:1047B00019F8012000F008F8002000F005F8204664
:1047C000BDE8F081000C014010B5024640210448CC
:1047D000FDF745F8BDE810400420FFF7AFBF00002B
:1047E000000C014010B5024680210448FDF737F85F
:1047F000BDE810400420FFF7A1BF0000000C0140FD
:1048000010B500F0A7F80120FFF7ECFF0120FFF73B
:10481000DBFF0020FFF7E6FFBDE810400020FFF7B8
:10482000D3BF10B500F096F80020FFF7CDFF0020B1
:10483000FFF7D8FF0120FFF7C7FFBDE810400120B8
:10484000FFF7D0BF70B5002400F074F80120FFF727
:10485000C9FF0120FFF7B8FF0C4D04E0641CA4B2AF
:104860000220FFF76BFF80212846FCF7F3FF0128A9
:1048700001D1642CF2D30020FFF7A6FF00F06AF804
:10488000642C01D3012070BD002070BD000C0140DC
:1048900070B5054600F05EF800240020FFF794FF95
:1048A000E809FFF79FFF6806050E0120FFF78CFF60
:1048B000641CE4B2082CF0D3BDE870400020FFF780
:1048C00083BF2DE9F04115460F0006464FF0FF3437
:1048D00009D045B1FFF794FFD020FFF7D9FFFFF7CC
:1048E000B1FF88B902E02046BDE8F0813046FFF70D
:1048F000CFFFFFF7A7FF38B9FFF782FFD120FFF7FF
:10490000C7FFFFF79FFF10B1FFF78BFFEBE7002416
:1049100009E0661CAE4201D2012000E00020FFF752
:1049200019FF3855F4B2AC42F3D3FFF77AFF0020F9
:10493000DAE700001FB5002001900390802000906E
:104940000120029069460248FCF794FE1FBD00005A
:10495000000C01401FB58020009011200190012023
:1049600002900320039069460148FCF783FE1FBDB7
:10497000000C014070B50D460646FFF741FFD02000
:10498000FFF786FFFFF75EFF4FF0FF3458B9304660
:10499000FFF77EFFFFF756FF28B92846FFF778FF9D
:1049A000FFF750FF18B1FFF73CFF204670BDFFF73F
:1049B00038FF002070BD00004FF4FA60044600F09C
:1049C00013FEFFF705FD41F2883500BF00F0B0F897
:1049D00040B1DB220BA110A0FEF7C6FB284600F079
:1049E00003FEF3E7D32207A118A0FEF7BDFB40F6B4
:1049F000B8352046641C00F06FFA284600F0F4FD3C
:104A0000F7E700002E2E5C6170705C6F6E656E655E
:104A1000745F61742E6300005B25733A25645D2D1D
:104A20002D4553502D415420696E69742F6C6F676A
:104A3000696E206661696C65642C20726574727998
:104A40002061667465722035730D0A005B25733A28
:104A500025645D2D2D4553502D4154204F6E654EDC
:104A60004554206C6F67696E206F6B0D0A00000063
:104A700008B102A0704703A070470000747275650A
:104A80000000000066616C73650000002DE9F04FC6
:104A90008DB01C4615468A465FEA000B43D0E5B34D
:104AA000DCB3BAF1000F3ED02069FFF7E1FF0190BF
:104AB000E068FFF7DDFF0090A068FFF7D9FF0290E4
:104AC000E069FBF7D2FD80468946A069FBF7CDFD82
:104AD00006460F466069FBF7C8FD95F808C06D7A79
:104AE00003460A46DDE900010DF1240E08958EE823
:104AF000031002986168CDE90610CDE9003202A8E2
:104B00000A4A80E8C003514658462368FEF73CFB3A
:104B1000002801DB504503D300E004E06FF0010002
:104B20000DB0BDE8F08F4FF0FF30F9E7C45C00082E
:104B30002DE9F0474FF4FA64D2B022464BA14CA0C5
:104B4000FFF7ACFC4FF0FF3600287BD1224647A18F
:104B500049A0FFF7A3FC40F6B83A524643A148A04B
:104B6000FFF79CFC41F28834224640A148A0FFF7A1
:104B700095FC4CA04FF4807500904DA350A229469F
:104B800001A8FEF701FBA20038A101A8FFF786FCEF
:104B9000002866D150A2294601A8FEF7F5FA224660
:104BA00032A101A8FFF77AFC00285AD154A357A2DA
:104BB000294601A8FEF7E8FA22462CA101A8FFF732
:104BC0006DFC00284DD158A35AA2A946294601A838
:104BD000FEF7DAFAA046224624A101A8FFF75EFC00
:104BE00000283ED1604F5AA420A53846FBF72EFB83
:104BF000009023465DA2402141A8FEF7C5FAFFF7C9
:104C0000D7FB41A8FFF75EFC60B95046FFF77AFC7E
:104C100040B93846FFF756FC20B941462846FFF711
:104C200077FC58B1504B54A2494601A8FEF7ACFAA4
:104C300042460EA101A8FFF731FC18B942F2B32099
:104C400054A300E00DE000905CA2494601A8FEF7E5
:104C50009BFA43F6982205A101A8FFF71FFC002844
:104C600000D0304652B0BDE8F08700004F4B000046
:104C700041540D0A00000000415445300D0A000067
:104C800041542B43574D4F44453D310D0A00000020
:104C900041542B4D515454434C45414E3D300D0A27
:104CA0000000000078663638333237302F2F23006B
:104CB00054502D4C494E4B5F4236433200000000A9
:104CC00041542B43574A41503D222573222C222523
:104CD00073220D0A0000000041542B4D51545455CD
:104CE0005345524346473D302C322C22222C22225F
:104CF0002C22222C302C302C22220D0A0000000005
:104D0000657370333263332D3030310041542B4D95
:104D1000515454434C49454E5449443D302C22256E
:104D200073220D0A00000000666A49723839674E26
:104D30006C63000041542B4D515454555345524E11
:104D4000414D453D302C222573220D0A0000000004
:104D500041542B4D5154544C4F4E4750415353578F
:104D60004F52443D00000000445C00082573302C85
:104D700025750D0A0000000041542B4D515454502C
:104D8000415353574F52443D302C222573220D0A74
:104D900000000000666A49723839674E6C632E6DF8
:104DA00071747473746C732E6163632E636D6363CB
:104DB0006F6E656E65742E636E00000041542B4D5E
:104DC000515454434F4E4E3D302C222573222C25F6
:104DD000642C300D0A00000030B5A9B004004FF07B
:104DE000FF3523D0FBF732FA009016A321A2A021B1
:104DF00001A8FEF7C9F9FFF7DBFA01A8FFF762FB8C
:104E0000A0B941F28830FFF77DFB78B92046FFF763
:104E100059FB58B942F210711EA0FFF779FB40B15F
:104E20004FF4FA611EA0FFF773FB10B1284629B0BA
:104E300030BD23469B221BA11FA0FEF795F9002041
:104E4000F5E70000247379732F666A497238396771
:104E50004E6C632F657370333263332D3030312FD6
:104E60007468696E672F70726F70657274792F70D5
:104E70006F73740041542B4D51545450554252415C
:104E8000573D302C222573222C25752C302C300DCB
:104E90000A0000002B4D5154545055423A4F4B00DC
:104EA0004F4B00002E2E5C6170705C6F6E656E65FE
:104EB000745F61742E6300005B25733A25645D2D79
:104EC0002D4D515454207075626C697368206F6B5E
:104ED0003A2025730D0A00002DE9F041ADF51E7D45
:104EE0008046242194A8FBF794F920218CA8FBF795
:104EF00090F994A8FEF79CFE94988D909DF8650219
:104F0000CDF8308200B101208E909DF8640200B18E
:104F100001208F909798B0F5FA6F01DD012000E035
:104F2000002090909A9891909B9892909C98939042
:104F3000FBF79BFB06460F469B98FBF796FB044648
:104F40000D469A98FBF791FB06AA82E8F3009DF8BC
:104F5000590201AC9DF865329DF86422979984E866
:104F60000F009DF8580200904346B02214A1194842
:104F7000FEF7FAF88CAB94AA4FF400710CA8FFF777
:104F800085FD031E08DCBD220DA113A0FEF7ECF881
:104F90000DF51E7DBDE8F081C12209A119A0FEF723
:104FA000E3F80CA8FFF718FF18B1C32204A11EA054
:104FB00002E0C52202A125A0FEF7D6F8E8E700002E
:104FC0002E2E5C6170705C6F6E656E65745F6174CF
:104FD0002E630000D85B00085B25733A25645D2DC5
:104FE0002D4F6E654E4554207061796C6F61642061
:104FF0006275696C64206661696C65643A20256439
:105000000D0A00005B25733A25645D2D2D4F6E65FA
:105010004E4554207061796C6F6164206C656E3D03
:1050200025640D0A000000005B25733A25645D2DA0
:105030002D4F6E654E4554207075626C6973682003
:105040006661696C65640D0A000000005B25733AB7
:1050500025645D2D2D4F6E654E4554207075626C34
:10506000697368207461736B207375636365737310
:105070000D0A00002DE9F0411E4C0F460546E6687A
:105080002068001D00F000FA38B9206890F82C1054
:1050900001208840216981432161681C15D1A7B195
:1050A000154922684868906023688268DA6022683F
:1050B0008368121D5A602268121D82602068416157
:1050C0000868401C0860BDE8F08120683544B5429E
:1050D0004560216805D2E06BBDE8F041091D00F094
:1050E00019BAA06B091D00F015FAA06A8542EAD230
:1050F000A562E8E73C000020800D00202DE9F0418A
:10510000054600F02BFA354CA068401CA0602068D2
:10511000334F10B1606930B32BE02560A0680128DF
:1051200027D1002606EB860007EB800000F0E4F9AB
:10513000761C202EF6D32B4800F0DEF929481430D7
:1051400000F0DAF92748283000F0D6F925483C303D
:1051500000F0D2F92348503000F0CEF92148A06386
:105160001430E06305E02068E96AC06A884200D82C
:105170002560606A401C60626864E96A01202269F7
:1051800088401043206101EB810007EB80004068FC
:10519000A8608168E9608268291D51608160E86AC1
:1051A00000EB800007EB8001696157F82010491C73
:1051B00047F8201000F0E0F9606900280CD0206862
:1051C000E96AC06A884207D207494FF080500860F8
:1051D000BFF34F8FBFF36F8FBDE8F0813C0000201D
:1051E000B00A0020300D002004ED00E010B50446A8
:1051F000006B00F0CBF92046BDE8104000F0C6B9C6
:105200000E484FF47051420706D0C01D0B4920F0E4
:105210000700411AC1F57051094A00230144C2E94F
:1052200000030839143A21F0070111604B600B604C
:105230000B1AC0E90013936053607047940D00206F
:1052400090000020144E154CA6F52F774FF0805893
:10525000DFF84C9012E000BF00F080F9F068C568FC
:10526000281D00F011F9A068401EA0606068401E73
:10527000606000F081F92846FFF7B8FF60680028F9
:10528000EAD138680128F9D9C9F80080BFF34F8FF7
:10529000BFF36F8FF2E700006C0D00203C00002090
:1052A00004ED00E02DE9F0470E46DDE909841746DC
:1052B000824691009946089DA522206BFAF7A2FF2D
:1052C0006FF00301206B01EB8701084420F0070712
:1052D00066B100202218315C82F83410315C11B1C3
:1052E000401C1028F6D3002084F84300202D00D362
:1052F0001F25E562201DE56400F009F904F118009E
:1053000000F005F92461C5F120006462A0614A46FD
:105310005146384600F090F82060B8F1000F01D0F7
:10532000C8F80040BDE8F08730B5114900E01146EB
:105330000A688242FBD34B685C18844203D1406800
:1053400018444860084643681C18944209D1084C28
:10535000143C2468A24209D052681A4442600A6888
:1053600012680260814200D0086030BD0460F9E735
:10537000900000200548816B096821B1816BC968E4
:105380000968816270474FF0FF31FAE73C00002066
:10539000BF2080F31188BFF34F8FBFF36F8FFEE7FD
:1053A00070B50446002600F0AFF9224D286808B910
:1053B000FFF726FFCCB304F00700C0F11000C14393
:1053C0008C4232D8211800292FDD686881422CD800
:1053D000184814300246146801E0204614466268FA
:1053E0008A4202D22268002AF7D12A6894421CD04D
:1053F00006682268026060680836421A102A04D9DA
:10540000601842606160FFF78FFF61686868401A4A
:105410006860AA68904200D2A86041F000406060D5
:1054200000202060E868401CE86000F0DBFA3046AD
:1054300070BD00007C00002010B5031F4FF0807489
:105440001C601B1F21F001011960191F024B0B602A
:10545000143940380A6010BD9153000870B50546F4
:10546000FBF7CDF9044620F00040C0F1FF40C00F2B
:1054700008D025F00040C0F1FF40C00F04BF01205C
:10548000FDF7D6FE204670BDD0E9013201699A6071
:10549000D0E901235A604A68824201D182684A6099
:1054A000002202610868401E08600868704700001A
:1054B0000B464B2202A107A0FDF756FEFEE70000B7
:1054C0002E2E2F436F72652F5372632F6D61696E9D
:1054D0002E6300005B25733A25645D2D2D537461A6
:1054E000636B204F766572666C6F77212054617311
:1054F0006B3A2025730D0A0000F108014FF0FF32CE
:10550000C0E90112C1600161002101607047002102
:105510000161704730B50B685A1C02D000F10802D7
:1055200002E0026904E02246546825689D42FAD9E7
:1055300053684B6099608A60516008610168491C3A
:10554000016030BD42684A6093688B60936859601F
:10555000916008610168491C01607047BF2080F3B9
:105560001188BFF34F8FBFF36F8F02480168491C4A
:10557000016070479800002003490868401E0860D9
:1055800001D180F3118870479800002070B5002881
:105590001BD0A0F108046068002816DA21680029F1
:1055A00013D120F00040606000F0AEF8074D606855
:1055B0006968084468602046FFF7B6FE2869401C09
:1055C0002861BDE8704000F00DBA70BD7C0000207D
:1055D0004FF0E02000210161816102494161072112
:1055E000016170473F19010010B5020009D000F0B9
:1055F0008BF800211046FFF73DFD00F0F3F900287D
:1056000007D104494FF080500860BFF34F8FBFF3BC
:105610006F8F10BD04ED00E070B50546FFF79EFFEB
:10562000214C05B92568281DFFF72EFF58B9E86AF7
:105630001E4A00EB800152F8211021B9012181405E
:10564000206988432061A86A18B105F11800FFF7A6
:105650001BFF606A401C60622068854207D1291DDB
:105660001348FFF76FFF6068401C606004E0A068AB
:10567000401EA060FFF77EFEFFF77EFF2068854298
:1056800002D02846FFF7B2FD606900280AD02068E2
:10569000854207D107494FF080500860BFF34F8F14
:1056A000BFF36F8F70BD00003C000020B00A0020E7
:1056B0006C0D002004ED00E07CB50F480025CDE91D
:1056C00000502B4680220DA10E4800F08BF80A4CAA
:1056D0002C3C01280ED1BF2080F31188BFF34F8FDF
:1056E000BFF36F8F4FF0FF30A06201206061E56073
:1056F00000F04AF8206B7CBD6800002049444C450E
:1057000000000000455200080248416B491C4163FB
:10571000704700003C00002010B5194C606B10B1C0
:105720000120E06110BD0020E06120684FF0A5314C
:10573000006B02688A4208D142688A4205D18268B9
:105740008A4202D1C068884204D02168206834317E
:10575000FFF7AEFE20690B49B0FA80F0C0F11F00E0
:1057600000EB800001EB800000F10802416849680D
:105770004160914201D149684160C868206010BD14
:105780003C000020B00A0020094810B5016841F42F
:105790007F010160016841F07F410160FFF718FF60
:1057A000044900200860FAF7BFFC002010BD00008B
:1057B00020ED00E09800002010B5BF2080F3118894
:1057C000BFF34F8FBFF36F8F00F07AF818B1044921
:1057D0004FF080500860002080F3118810BD000059
:1057E00004ED00E02DE9FF5F8346DDE90E87994671
:1057F00016468A469000FFF7D3FD05001DD05C20B9
:10580000FFF7CEFD040015D05C21FAF702FD2563F9
:105810000021CDE90241CDE900874B463246514691
:105820005846FFF73FFD2046FFF768FC012004B013
:10583000BDE8F09F2846FFF7A9FE4FF0FF30F6E7DE
:1058400070B50E4605460024FFF75EFF1048C2689B
:105850002B689919934204D98B420BD9914202D8F3
:1058600008E08B42FAD9881A296001240021FFF749
:1058700001FC00E0296000F0B5F838B905494FF0A7
:1058800080500860BFF34F8FBFF36F8F204670BD0D
:105890003C00002004ED00E00548416919B1406B6F
:1058A00018B10020704701207047022070470000A7
:1058B0003C0000200148C068704700003C00002008
:1058C0002DE9F041454C0026606B28B1A069401CD1
:1058D000A0613046BDE8F081E5686D1CE56008D147
:1058E000A06BE16BA163E063206A401C2062FFF7BC
:1058F00041FDA16A3A488D420FD34FF0000EA16BD3
:10590000096839B1A16BC968C9684A68954212D261
:10591000A26202E04FF0FF31A1622168C96A01EB87
:10592000810150F82100012800D90126E0690028F2
:10593000CFD00126CDE7D1E902724B69BA60D1E937
:1059400002277A605F680A1D974201D1CF685F60C5
:10595000C1F814E01F687F1E1F60D1F828C0BCF199
:10596000000F15D0D1E907379F60D1E907377B6079
:10597000DCF8047001F118039F4202D10B6ACCF8E5
:105980000430C1F828E0DCF800305B1ECCF80030B1
:10599000CB6A0127D4F810C09F4047EA0C07276163
:1059A00003EB830300EB83035B688B609F68CF602E
:1059B0009F687A609A60CA6A02EB820200EB8203F7
:1059C0004B6150F822305B1C40F82230C96A2268D3
:1059D000D26A914293D9012691E700003C00002051
:1059E000B00A00202DE9F04100242746FFF7B6FD5C
:1059F0003F4D686B401E6863686B002872D1A868D1
:105A00003C4B00264FF00108F0BB6BE0D868C4683F
:105A1000D4E90721A06A9160D4E907125160426875
:105A200004F118018A4201D1216A4160A66201682D
:105A3000491E0160D4E9022160699160D4E9021233
:105A400051604268211D8A4201D1E268426066616C
:105A50000268521E0260E26AD5F810C008FA02F02D
:105A600040EA0C00286102EB8200234A02EB80002E
:105A70004068A060D0F808C0C4F80CC0D0F808C0D6
:105A8000CCF80410816000E011E0E06A00EB8000D7
:105A900002EB8001616152F82010491C42F820108D
:105AA000E06A2968C96A884201D3C5F81C80186871
:105AB0000028ABD10CB1FFF75DFCAC6944B100BF6D
:105AC000FFF7FEFE08B1C5F81C80641EF8D1AE6178
:105AD000E86938B10949012738070860BFF34F8FDB
